{
  "contractName": "Stamper",
  "abi": [
    {
      "inputs": [],
      "payable": false,
      "stateMutability": "nonpayable",
      "type": "constructor",
      "signature": "constructor"
    },
    {
      "anonymous": false,
      "inputs": [
        {
          "indexed": true,
          "name": "from",
          "type": "address"
        },
        {
          "indexed": true,
          "name": "object",
          "type": "bytes32"
        },
        {
          "indexed": false,
          "name": "blockNo",
          "type": "uint256"
        }
      ],
      "name": "Stamped",
      "type": "event",
      "signature": "0x3a0b5d7066b49e6f19e8199e84c7a296092240386482cc1b23a7c4e3c98a79d5"
    },
    {
      "constant": false,
      "inputs": [
        {
          "name": "objectList",
          "type": "bytes32[]"
        }
      ],
      "name": "put",
      "outputs": [],
      "payable": false,
      "stateMutability": "nonpayable",
      "type": "function",
      "signature": "0x3a00faae"
    },
    {
      "constant": true,
      "inputs": [
        {
          "name": "pos",
          "type": "uint256"
        }
      ],
      "name": "getStamplistPos",
      "outputs": [
        {
          "name": "",
          "type": "bytes32"
        },
        {
          "name": "",
          "type": "address"
        },
        {
          "name": "",
          "type": "uint256"
        }
      ],
      "payable": false,
      "stateMutability": "view",
      "type": "function",
      "signature": "0x9d192428"
    },
    {
      "constant": true,
      "inputs": [
        {
          "name": "object",
          "type": "bytes32"
        }
      ],
      "name": "getObjectCount",
      "outputs": [
        {
          "name": "",
          "type": "uint256"
        }
      ],
      "payable": false,
      "stateMutability": "view",
      "type": "function",
      "signature": "0xc2433cd3"
    },
    {
      "constant": true,
      "inputs": [
        {
          "name": "object",
          "type": "bytes32"
        },
        {
          "name": "pos",
          "type": "uint256"
        }
      ],
      "name": "getObjectPos",
      "outputs": [
        {
          "name": "",
          "type": "uint256"
        }
      ],
      "payable": false,
      "stateMutability": "view",
      "type": "function",
      "signature": "0x789bbb41"
    },
    {
      "constant": true,
      "inputs": [
        {
          "name": "object",
          "type": "bytes32"
        },
        {
          "name": "stamper",
          "type": "address"
        }
      ],
      "name": "getBlockNo",
      "outputs": [
        {
          "name": "",
          "type": "uint256"
        }
      ],
      "payable": false,
      "stateMutability": "view",
      "type": "function",
      "signature": "0xbbc48b7c"
    },
    {
      "constant": true,
      "inputs": [
        {
          "name": "stamper",
          "type": "address"
        }
      ],
      "name": "getStamperCount",
      "outputs": [
        {
          "name": "",
          "type": "uint256"
        }
      ],
      "payable": false,
      "stateMutability": "view",
      "type": "function",
      "signature": "0xc15ed491"
    },
    {
      "constant": true,
      "inputs": [
        {
          "name": "stamper",
          "type": "address"
        },
        {
          "name": "pos",
          "type": "uint256"
        }
      ],
      "name": "getStamperPos",
      "outputs": [
        {
          "name": "",
          "type": "uint256"
        }
      ],
      "payable": false,
      "stateMutability": "view",
      "type": "function",
      "signature": "0xa08d1a4f"
    }
  ],
  "bytecode": "0x608060405234801561001057600080fd5b5033600360006101000a81548173ffffffffffffffffffffffffffffffffffffffff021916908373ffffffffffffffffffffffffffffffffffffffff1602179055506000606060405190810160405280600060010281526020013373ffffffffffffffffffffffffffffffffffffffff16815260200143815250908060018154018082558091505090600182039060005260206000209060030201600090919290919091506000820151816000015560208201518160010160006101000a81548173ffffffffffffffffffffffffffffffffffffffff021916908373ffffffffffffffffffffffffffffffffffffffff160217905550604082015181600201555050506108c9806101226000396000f3fe608060405234801561001057600080fd5b506004361061009a576000357c010000000000000000000000000000000000000000000000000000000090048063a08d1a4f11610078578063a08d1a4f1461021f578063bbc48b7c14610281578063c15ed491146102e3578063c2433cd31461033b5761009a565b80633a00faae1461009f578063789bbb41146101575780639d192428146101a3575b600080fd5b610155600480360360208110156100b557600080fd5b81019080803590602001906401000000008111156100d257600080fd5b8201836020820111156100e457600080fd5b8035906020019184602083028401116401000000008311171561010657600080fd5b919080806020026020016040519081016040528093929190818152602001838360200280828437600081840152601f19601f82011690508083019250505050505050919291929050505061037d565b005b61018d6004803603604081101561016d57600080fd5b810190808035906020019092919080359060200190929190505050610579565b6040518082815260200191505060405180910390f35b6101cf600480360360208110156101b957600080fd5b81019080803590602001909291905050506105ae565b604051808481526020018373ffffffffffffffffffffffffffffffffffffffff1673ffffffffffffffffffffffffffffffffffffffff168152602001828152602001935050505060405180910390f35b61026b6004803603604081101561023557600080fd5b81019080803573ffffffffffffffffffffffffffffffffffffffff16906020019092919080359060200190929190505050610642565b6040518082815260200191505060405180910390f35b6102cd6004803603604081101561029757600080fd5b8101908080359060200190929190803573ffffffffffffffffffffffffffffffffffffffff1690602001909291905050506106a3565b6040518082815260200191505060405180910390f35b610325600480360360208110156102f957600080fd5b81019080803573ffffffffffffffffffffffffffffffffffffffff1690602001909291905050506107f6565b6040518082815260200191505060405180910390f35b6103676004803603602081101561035157600080fd5b8101908080359060200190929190505050610842565b6040518082815260200191505060405180910390f35b60008090506000825190505b8082101561057457600083838151811015156103a157fe5b9060200190602002015190506000600160006060604051908101604052808581526020013373ffffffffffffffffffffffffffffffffffffffff16815260200143815250908060018154018082558091505090600182039060005260206000209060030201600090919290919091506000820151816000015560208201518160010160006101000a81548173ffffffffffffffffffffffffffffffffffffffff021916908373ffffffffffffffffffffffffffffffffffffffff16021790555060408201518160020155505003905060016000838152602001908152602001600020819080600181540180825580915050906001820390600052602060002001600090919290919091505550600260003373ffffffffffffffffffffffffffffffffffffffff1673ffffffffffffffffffffffffffffffffffffffff168152602001908152602001600020819080600181540180825580915050906001820390600052602060002001600090919290919091505550813373ffffffffffffffffffffffffffffffffffffffff167f3a0b5d7066b49e6f19e8199e84c7a296092240386482cc1b23a7c4e3c98a79d5436040518082815260200191505060405180910390a383806001019450505050610389565b505050565b6000600160008481526020019081526020016000208281548110151561059b57fe5b9060005260206000200154905092915050565b600080600080848154811015156105c157fe5b9060005260206000209060030201600001546000858154811015156105e257fe5b906000526020600020906003020160010160009054906101000a900473ffffffffffffffffffffffffffffffffffffffff1660008681548110151561062357fe5b9060005260206000209060030201600201549250925092509193909250565b6000600260008473ffffffffffffffffffffffffffffffffffffffff1673ffffffffffffffffffffffffffffffffffffffff1681526020019081526020016000208281548110151561069057fe5b9060005260206000200154905092915050565b6000806001600085815260200190815260200160002080549050905060008090505b818110156107e9576106d5610862565b600060016000888152602001908152602001600020838154811015156106f757fe5b906000526020600020015481548110151561070e57fe5b906000526020600020906003020160606040519081016040529081600082015481526020016001820160009054906101000a900473ffffffffffffffffffffffffffffffffffffffff1673ffffffffffffffffffffffffffffffffffffffff1673ffffffffffffffffffffffffffffffffffffffff16815260200160028201548152505090508473ffffffffffffffffffffffffffffffffffffffff16816020015173ffffffffffffffffffffffffffffffffffffffff1614156107db57806040015193505050506107f0565b5080806001019150506106c5565b5060009150505b92915050565b6000600260008373ffffffffffffffffffffffffffffffffffffffff1673ffffffffffffffffffffffffffffffffffffffff168152602001908152602001600020805490509050919050565b600060016000838152602001908152602001600020805490509050919050565b60606040519081016040528060008019168152602001600073ffffffffffffffffffffffffffffffffffffffff16815260200160008152509056fea165627a7a72305820c541aba450f5d18a4cae8359ffcd198da12440d103ca79e555d3ae53ca3b31460029",
  "source": "// 20190401 Robert Martin-Legene <robert@nic.ar>\n// Stamper\n// vim:filetype=javascript\n\npragma solidity ^0.5.2;\n\ncontract Stamper {\n    struct Stamp {\n        bytes32 object;\n        address stamper;\n        uint256 blockNo;\n    }\n    Stamp[] stampList;\n\n    // Mapping de objects stampeados a la stampList\n    mapping ( bytes32 => uint256[] )  hashObjects;\n\n    // Mapping de cuentas que stampean (stampers) a la stampList\n    mapping ( address => uint256[] )  hashStampers;\n\n    // Evento que se dispara al agregar un stamp\n    event Stamped(\n        address indexed from,\n        bytes32 indexed object,\n        uint256 blockNo\n    );\n\n    address owner;\n\n    constructor() public {\n        owner = msg.sender;\n\n        // No queremos que haya stamps asociados a la posicion 0 (== false)\n        // entonces guardamos ahi informacion de quien creo el SC y en que bloque\n        stampList.push(Stamp(0, msg.sender, block.number));\n    }\n\n    // Stampear una lista de objects (hashes)\n    function put( bytes32[] memory objectList ) public {\n        uint256 i = 0;\n        uint256 max = objectList.length;\n        while ( i<max )\n        {\n            bytes32 h = objectList[i];\n            // stampList.push devuelve la longitud, restamos 1 para usar como indice\n            uint256 idx = stampList.push(Stamp(h, msg.sender, block.number)) - 1;\n            hashObjects[h].push(idx);\n            hashStampers[msg.sender].push(idx);\n\n            emit Stamped(msg.sender, h, block.number);\n\n            i++;\n        }\n    }\n\n    // devuelve un stamp completo (object, stamper, blockno) de la lista\n    function getStamplistPos( uint256 pos ) public view returns ( bytes32, address, uint256 )\n    {\n        return  (stampList[pos].object, stampList[pos].stamper, stampList[pos].blockNo );\n    }\n\n    // devuelve la cantidad de stamps que hay de este object\n    function getObjectCount( bytes32 object ) public view returns (uint256)\n    {\n        return hashObjects[object].length;\n    }\n\n    // devuelve la ubicacion en la stampList de un stamp especifico de este object\n    function getObjectPos( bytes32 object, uint256 pos ) public view returns (uint256)\n    {\n        return hashObjects[object][pos];\n    }\n\n    // devuelve el nro de bloque en el que stamper registro object. Si no fue stampeado devuelve 0\n    function getBlockNo( bytes32 object, address stamper ) public view returns (uint256)\n    {\n        uint length = hashObjects[object].length;\n        for (uint i = 0; i < length; i++) {\n            Stamp memory current = stampList[hashObjects[object][i]];\n            if (current.stamper == stamper) {\n                return current.blockNo;\n            }\n        }\n\n        return 0;\n    }\n\n    // devuelve la cantidad de stamps que realizo este stamper\n    function getStamperCount( address stamper ) public view returns (uint256)\n    {\n        return hashStampers[stamper].length;\n    }\n\n    // devuelve la ubicacion en la sstamplist de un Stamp especifico de este stamper\n    function getStamperPos( address stamper, uint256 pos ) public view returns (uint256)\n    {\n        return hashStampers[stamper][pos];\n    }\n}\n",
  "sourcePath": "/home/ablanco/proyectos/bfa/tsa/contract/contracts/Stamper.sol",
  "compiler": {
    "name": "solc",
    "version": "0.5.2+commit.1df8f40c.Emscripten.clang"
  },
  "schemaVersion": "3.0.8",
  "updatedAt": "2019-05-07T21:28:13.649Z",
  "devdoc": {
    "methods": {}
  },
  "userdoc": {
    "methods": {}
  }
}